:020000040800F2
:10000000880800209101000807280008391E000810
:100010000528000887050008593000080000000086
:10002000000000000000000000000000552A000849
:100030009B0500080000000009280008572A000856
:10004000AB010008AB010008AB010008AB010008E0
:10005000AB010008AB010008AB010008AB010008D0
:10006000AB010008AB010008AB010008AB010008C0
:10007000AB010008AB010008AB010008AB010008B0
:10008000AB010008AB010008AB010008AB010008A0
:10009000AB010008AB010008AB010008AB01000890
:1000A000AB010008AB010008AB010008AB01000880
:1000B000AB010008AB010008AB010008AB01000870
:1000C000AB010008AB010008AB010008AB01000860
:1000D000AB010008AB010008AB0100084D3000087F
:1000E000AB010008AB010008AB01000800F002F80A
:1000F00000F03FF80AA090E8000C82448344AAF183
:100100000107DA4501D100F034F8AFF2090EBAE880
:100110000F0013F0010F18BFFB1A43F0010318473B
:100120004839000068390000103A24BF78C878C107
:10013000FAD8520724BF30C830C144BF04680C60ED
:10014000704700000023002400250026103A28BF35
:1001500078C1FBD8520728BF30C148BF0B60704739
:10016000642900F05D80002070471FB51FBD10B5E9
:1001700010BD00F0D2F91146FFF7F7FF03F066FA61
:1001800000F0F0F903B4FFF7F2FF03BC00F0F4F95C
:100190000948804709480047FEE7FEE7FEE7FEE71B
:1001A000FEE7FEE7FEE7FEE7FEE7FEE70448054957
:1001B000054A064B70470000B92A0008ED00000808
:1001C000880200208808002088040020880400207D
:1001D000B2F120030AD5C2F1200320FA02F001FA9D
:1001E00003F321FA02F140EA0300704721FA03F019
:1001F0004FF00001704700000FB41CB5074B06AA72
:100200007B4469460090059800F06FF9002069462C
:1002100000F07EF91CBC5DF814FB00000D0300002B
:100220002DE9F0410646002410687529314616A5CF
:1002300011D0AFF30080002803DAC0F1000013A54D
:1002400007E031688A0701D511A502E0490704D506
:1002500010A5012401E0AFF3008000210A2306F17C
:10026000240707E0B0FBF3F203FB120030307854B0
:100270001046491C0028F5D123462A463046BDE8E1
:10028000F04100F0D1B80000000000002D00000097
:100290002B000000200000002DE9F05F8946044695
:1002A0004FF0000ADFF828B1FB44C0F820A0204638
:1002B000E168884700287CD0252806D0D4E90121B0
:1002C0009047206A401C2062F1E700255F462046E7
:1002D000E16888472028064608DB312E06D207EB66
:1002E000060010F8200C08B10543F0E7A80701D577
:1002F00025F00405C4F81CA00027C4F818A02A2E75
:1003000009D0304602F096FF38B304EB8708303E40
:10031000C8F8186019E059F8041B204604EB87025E
:100320009161E1688847012F064618D1E0690028ED
:1003300020DA25F020051DE0D8F8180000EB800039
:1003400006EB40003038C8F818002046E1688847BE
:10035000064602F06FFF0028EED1012F0AD02E2EA4
:1003600008D12046E16888477F1C0646022F45F0E9
:100370002005C4DBA069002803DA404245F00105EE
:10038000A061E80701D025F0100596B1A6F1410063
:10039000192802D8203645F400654A4631462046E1
:1003A00025604D46FFF7DCFE60B1012807D0ED1D4A
:1003B00000E009E025F0070000F1080977E705F102
:1003C000040974E7304679E7206ABDE8F09F000031
:1003D000AB3700004FF0000200B513469446964636
:1003E000203922BFA0E80C50A0E80C50B1F1200148
:1003F000BFF4F7AF090728BFA0E80C5048BF0CC0F6
:100400005DF804EB890028BF40F8042B08BF704753
:1004100048BF20F8022B11F0804F18BF00F8012BC5
:1004200070477047704770472DE9F0470D46994671
:100430009246044600F124080168880604D5E06964
:1004400021F01001216000E00120A84202DDA0EBB4
:10045000050700E00027A16907EB050202EB090090
:10046000A1EB0000A0612078C00602D42046AFF3C3
:100470000080002608E0D4E901211AF80600904720
:10048000206A401C761C20624E45F4DB2078C006B2
:100490000AD52046AFF3008006E0D4E901213020E0
:1004A0009047206A401C2062381EA7F10107F4DC47
:1004B00007E0D4E9012118F805009047206A401CA4
:1004C0002062281EA5F10105F3DC2046AFF3008071
:1004D0002078000602D50220BDE8F0870120FBE766
:1004E00001694A1C02610878704700B58FB0CDE9F8
:1004F00001310021059105497944CDE903101146E8
:100500006846FFF7C9FE0FB000BD0000E5FFFFFF22
:100510000A6802F8010B0A607047754600F028F877
:10052000AE4605006946534620F00700854618B0E0
:1005300020B5FFF73BFEBDE820404FF000064FF02E
:1005400000074FF000084FF0000B21F00701AC4608
:10055000ACE8C009ACE8C009ACE8C009ACE8C00927
:100560008D4670470446AFF300802046FFF70AFE31
:10057000004870472802002001491820ABBEFEE762
:10058000260002007047FEE70A22B0FBF2F102FBF0
:10059000110040EA0110C0B27047704772B6FEE722
:1005A00006490020C8610648016941F00401016163
:1005B000016941F04001016170470000080200201C
:1005C00000200240064A0021D16106490A6942F032
:1005D00002020A614861086940F040000861704702
:1005E0000802002000200240044B0022DA61044A85
:1005F000136943F001031361018070470802002072
:100600000020024014480022C168CB06134904D5DB
:10061000CA6942F00202CA611022C3685B0705D5AD
:10062000CB6943F00103CB6142F00402C369DB07ED
:1006300007D0CB6943F00403CB61C16921F001010C
:10064000C161A2F58071013904D1C16921F00101B4
:10065000C1617047C260704700200240080200205C
:1006600070B5054600F074FA0646114C09E0681CA6
:1006700007D025B100F06CFA801BA84201D90320F5
:1006800070BDE068C007F2D1E068800601D5202087
:10069000E060E068C00605D4E069C00702D1E06808
:1006A000400703D5FFF7AEFF012070BD002070BDED
:1006B0000020024010B586B0044600F03FF901204A
:1006C000CDE9024001900020009004A9684600F0A6
:1006D00097F800F0E9F806B010BD0088704770B5D3
:1006E0000C46054600F02AF92246E3172946012068
:1006F00000F0E4F8BDE8704000F0D6B810B590F80E
:1007000021100022022905D00421816380F82020D5
:10071000012010BD01680B6823F00E030B60016817
:100720000B6823F001030B6090F84030C46B01218B
:1007300001FA03F3636080F8211080F8202010464E
:1007400010BD000010B590F821100024022903D03C
:100750000421816301243DE001680A6822F00E0251
:100760000A6001680A6822F001020A601A4A0168F8
:10077000914201D1012121E0174A1432914201D165
:1007800010211BE0144A2832914201D1891515E04D
:10079000114A3C32914201D189140FE00E4A503285
:1007A000914202D14FF4803108E00B4A6432914209
:1007B00002D14FF4801101E04FF08071064A083AEF
:1007C0005160012180F82110002180F82010416B38
:1007D00001B18847204610BD0800024070B50446AC
:1007E00000F0B6F90546601C02D0044800780444C5
:1007F00000F0AEF9401BA042FAD370BD3C000020CF
:100800002DE9F047054626480F460126017E0129BD
:100810000FD00121814601762868DFF888804CF2EC
:100820005034022808D0A2462046FFF719FFA8B18D
:1008300031E00220BDE8F0872046FFF711FF08BB3A
:100840000120FFF7ADFE2046FFF70AFFD8F8101091
:10085000064621F00401C8F810101CE04FF0FF30EC
:100860003860AC6811E02046FFF7ACFE5046FFF759
:10087000F7FED8F81010060021F00201C8F8101099
:1008800001D03C6007E004F58064D5E9020100EB8B
:100890008120A042E7D8002189F818103046C9E726
:1008A00008020020002002400348016941F0800155
:1008B0000161002070470000002002402DE9F05F38
:1008C00007461C4888460024017E15461E4601291D
:1008D00009D00121814601764CF2503A5046FFF78B
:1008E000BFFE18B122E00220BDE8F09F012F02D028
:1008F000022F00D00427D346DFF83CA0220128466F
:100900003146FFF765FC81B208EB4400FFF76CFE4F
:100910005846FFF7A5FEDAF8102022F00102CAF8C7
:10092000102018B9641CE4B2BC42E7D3002289F855
:100930001820D9E7080200200020024006490020C4
:100940000A69120607D5054A4A60054A4A600969DC
:10095000090600D5012070470020024023016745A9
:10096000AB89EFCD2DE9F84FDFF8B091002409F104
:10097000040A0AF1040B23460F270BF1040EC6E00C
:100980000125A5402A40AA4276D1DFF894C14E68DD
:10099000A6EB0C0866452BD00DDC032E34D005DC0D
:1009A00036B3012E19D0022E2FD11BE0112E16D0F6
:1009B000122E2AD119E0B8F5881F19D006DCB8F537
:1009C000803F15D0B8F5801F1FD111E0B8F5001F8A
:1009D0000ED0B8F5041F18D10AE0CB6815E0CB683B
:1009E0001B1D12E0CB6808330FE0CB680C330CE022
:1009F0008B682BB1012B4FF0080303D0456104E055
:100A0000042302E0056100E00023FF2A01D8064626
:100A100001E000F104064FEA840501D9A5F12005A3
:100A2000D6F8008007FA05FC28EA0C0803FA05F559
:100A300048EA0508C6F800804D68ED0066D5394DD6
:100A4000AE6946F00106AE61AD6924F0030605F01B
:100A500001050095344D06EB050CDCF80850A6079F
:100A6000360F07FA06F825EA0805DFF8C08040458A
:100A700003D14FF0000817E048E0DFF8B4804045AC
:100A800002D14FF001080FE0DFF8A880404502D105
:100A90004FF0020808E0DFF8A080404502D14FF097
:100AA000030801E04FF0040808FA06F848EA0508D0
:100AB000CCF808804D68D9F80060ED03002D4D4654
:100AC00001DA164300E096432E604D68DAF80060C4
:100AD000AD03002D554601DA164300E096432E6023
:100AE0004D68DBF80060ED02002D5D4601DA16432B
:100AF00000E096432E604D68DEF80060AD02002DE8
:100B0000754601DA164300E096432E60641C0A68BD
:100B100032FA04F57FF434AFBDE8F88F00040140E9
:100B200000001110001002400000014000080140C8
:100B3000000C014000100140001401408068084092
:100B400000D0012070470AB1016170470904FBE73A
:100B500001488068704700003C00002070B5040028
:100B600025D094F83D00002520B984F83C5020465B
:100B700000F0E8F9242084F83D002068016821F0A5
:100B8000010101602068016841F4004101602068B2
:100B9000016821F40041016000F030FB4A4A6168BD
:100BA000914201D8494900E04949884201D20120D7
:100BB00070BD48492368B0FBF1F15E6826F03F063E
:100BC0000E435E606368934206D94FF496735943AF
:100BD0004FF47A73B1FBF3F12368491C1E6A26F0C7
:100BE0003F0631431962616891420AD84900401EAC
:100BF000B0FBF1F0401CC0F30B0004281ED204200F
:100C00001CE0A368F3B301EBC10202EB0116421E24
:100C1000B2FBF6F2521C42F48042120549D093B363
:100C200001EBC10202EB0111401EB0FBF1F0401CD0
:100C3000C0F30B0040F4804040F400402168CA69D2
:100C40004CF6FF739A431043C861D4E9071001437F
:100C50002068026822F0C00211430160D4E9030158
:100C600001432068826848F2FF339A431143816050
:100C7000D4E9050108432168CA6822F0FF02104345
:100C8000C86001E00EE016E02068016841F0010153
:100C900001602564202084F83D00256384F83E50DF
:100CA000002070BD01EB4106421EB2FBF6F2521C61
:100CB000B3E70120C2E701EB4101401EB0FBF1F0B8
:100CC000401CC0F30B00B7E7A086010080841E0023
:100CD00000093D0040420F002DE9F84F1F469046A5
:100CE0008A460446DDF82890FFF732FF054694F85F
:100CF0003D0020287ED1192301224249204600953B
:100D000001F082F900287AD194F83C00012876D0CD
:100D1000012084F83C0020680168C90703D10168FC
:100D200041F0010101602068016821F40061016067
:100D3000212084F83D00102084F83E00002626641F
:100D4000C4F824806785608D20852F48E0622B469B
:100D50004A465146204601F08FF890B92068416913
:100D6000806900903AE02A464946204601F0CBF9D6
:100D700050B1206C042804D12068016841F400714E
:100D800001600120BDE8F88F606A21680078086181
:100D9000606A00F101006062618DA1F1010161856D
:100DA000218DA1F1010189B22185226853696FEA81
:100DB00003035B070BD451B100781061606A401CDB
:100DC0006062608D401E6085208D401E20852A4611
:100DD0004946204601F0F2F80028CAD1208D0028AB
:100DE000C1D154F81F0B016841F40071016020204B
:100DF000A07700E003E0E67766770020C2E70220F4
:100E0000C0E70000020010000000FFFF2DE9FF4FC7
:100E100083B09A46DDE9119793460446DDF8408099
:100E2000FFF796FE054694F83D0020287ED1192351
:100E3000012242492046009501F0E6F800287AD1C7
:100E400094F83C00012876D0012084F83C0020680A
:100E50000168C90703D1016841F001010160206800
:100E6000016821F400610160212084F83D004020E8
:100E700084F83E0000262664C4F82480A4F82A9052
:100E8000608D20852E48E062CDE9007553465A46B4
:100E90002046049901F03EF870B934E02A463946FC
:100EA000204601F030F958B1206C042804D12068A4
:100EB000016841F400710160012007B0BDE8F08FC6
:100EC000606A216800780861606A00F10100606270
:100ED000218DA1F1010189B22185628DA2F101026A
:100EE0006285226853696FEA03035B070BD469B11B
:100EF00000781061606A401C6062208D401E208571
:100F0000608D401E6085208D0028C7D12A46394655
:100F1000204601F053F80028C6D154F81F0B016891
:100F200041F4007101602020A07700E003E0E67743
:100F300066770020C1E70220BFE700000200100032
:100F40000000FFFF10B586B00021009101910291D1
:100F5000039100680F4988421AD10F4CA06940F0F4
:100F60000800A061A069694600F008000490C02054
:100F7000009012200190032003900848FFF7F2FC34
:100F8000E06940F40010E061E06900F400100490B2
:100F900006B010BD0054004000100240000C01409B
:100FA0000248816802781144816070473C0000204B
:100FB000074810B5016841F010010160032000F0FE
:100FC00075F80F2000F006F800F024F8002010BD9E
:100FD0000020024070B50D4D04464FF47A71287818
:100FE000B1FBF0F00A490968B1FBF0F000F07AFCBF
:100FF00048B9102C07D200222146501E00F036F8C6
:1010000000206C6070BD012070BD00003C0000201D
:10101000480000200C4808B5816941F00101816158
:10102000816901F001010091C16941F08051C16104
:10103000C06900F0805000900448416821F0E061F0
:1010400041F00071416008BD001002400000014005
:1010500000280ADB00F01F020121914040094FF0F7
:10106000E02202EB8000C0F800117047F0B40E4B94
:101070001B680C46C3F30223C3F10705042D00D9F6
:101080000425191D072901D2002300E0DB1E0126DB
:1010900006FA05F1491E214099409E40761E1640F1
:1010A0003143F0BC02F0B6B80CED00E0064900F0A8
:1010B000070208684FF6FF03184040EA0220034A7F
:1010C00010430860704700000CED00E00000FA05D6
:1010D0002DE9F0470F46050061D0434E306800F01F
:1010E0000700B84209D2306820F00700384330606A
:1010F000306800F00700B84251D128683B4C8107A6
:1011000012D5400703D5606840F4E060606028783D
:10111000000703D5606840F4605060606068A968AB
:1011200020F0F000084360602878C00728D0686885
:10113000012810D02168022810D0890700292EDA52
:10114000616821F0030101436160FFF701FD804602
:1011500041F288390DE021688903EFE78901EDE765
:10116000FFF7F6FCA0EB0801494502D90320BDE8D2
:10117000F0876068696800F00C00B0EB810FEFD178
:10118000306800F00700B8420BD9306820F0070043
:1011900038433060306800F00700B84201D00120C9
:1011A000E5E72878400705D56068E96820F4E06045
:1011B000084360602878000706D56068296920F434
:1011C000605040EAC100606000F038F86168084A89
:1011D000C1F30311515CC840064908600648006825
:1011E000FFF7F8FE0020C2E7002002400010024096
:1011F0003F3A00084800002040000020044805490C
:1012000000684968044AC1F30221515CC840704734
:1012100048000020001002404F3A000804480549E9
:1012200000684968044AC1F3C221515CC840704754
:1012300048000020001002404F3A000814A185B079
:10124000D1E90023D1E90201CDE9020114A0CDE9E1
:101250000023144A006804905168134801F00C03FD
:10126000042B10D0082B0ED1C1F38343C9031DF802
:1012700003000AD5516804AAC1F34041515C0A4AEF
:101280005043B0FBF1F005B0704708494843FAE716
:1012900002030405060708090A0B0C0D0E0F1010B7
:1012A000010200000010024000127A0000093D0017
:1012B0002DE9F84F040070D02078C24DC00749D006
:1012C0006868C0F38100012807D06868C0F3810016
:1012D000022809D16868C00306D52868800339D57B
:1012E00060680028E7D035E06068B0F5803F0BD03B
:1012F00010B1B0F5A02F11D0286820F480302860FC
:10130000286820F4802002E0286840F480302860BB
:10131000606890B1FFF71CFC06460AE0286840F4BC
:1013200080202860F0E700BFFFF712FC801B6428D4
:1013300074D828688003F7D50CE0FFF709FC06464F
:1013400005E000BFFFF704FC801B6428F0D8286884
:101350008003F7D420789C4E80074FF001094FF0AE
:10136000000839D5686810F00C0F07D06868C0F322
:101370008100022809D16868C00306D42868800764
:1013800014D52069012808D110E02069B0B1C6F851
:101390000090FFF7DDFB074605E00EE1FFF7D8FB05
:1013A000C01B0228C4D828688007F7D5286861695F
:1013B00020F0F80040EAC10028600DE0C6F8008087
:1013C000FFF7C6FB074604E0FFF7C2FBC01B02287D
:1013D000AED828688007F7D4207800072ED57B4840
:1013E000A169E1B1C0F80090FFF7B2FB074604E045
:1013F000FFF7AEFBC01B022810D8686A8007F7D53C
:1014000073484FF4FA510068B0FBF1F0009000BF50
:101410000098411E00910028F9D10FE082E0C0F849
:101420000080FFF795FB074605E000BFFFF790FB44
:10143000C01B022876D8686A8007F7D42078400756
:1014400061D5E8690027C00008D4E86940F0805001
:10145000E861E869012700F0805000905D4801686C
:10146000C90513D40168834641F480710160FFF718
:101470006FFB824606E000BFFFF76AFBA0EB0A00A5
:1014800064284FD8DBF80000C005F5D5E0680128D6
:101490000AD008B1052813D0286A20F0010028627C
:1014A000286A20F0040002E0286A40F00100286267
:1014B000E06841F2883B98B1FFF74AFB82460BE0B7
:1014C000286A40F004002862EEE700BFFFF740FB07
:1014D000A0EB0A0159455CD8286A8007F6D50CE0D4
:1014E000FFF736FB824605E0FFF732FBA0EB0A016F
:1014F00059454ED8286A8007F6D4012F03D1E869F0
:1015000020F08050E861E06990B36968C1F381011F
:10151000022945D00228C6F8608004D0FFF718FBE6
:10152000044639E035E0FFF713FB074605E000BF4E
:10153000FFF70EFBC01B02282BD828688001F7D4C8
:10154000206AB0F5803F05D16868A16820F40030BA
:1015500008436860D4E908010843696821F47411FC
:1015600008436860C6F86090FFF7F2FA044606E0A8
:1015700025E000BFFFF7ECFA001B022809D8286815
:101580008001F7D51BE000BFFFF7E2FA001B02283D
:1015900002D90320BDE8F88F28688001F4D40EE05A
:1015A0000128F7D06868226A00F48031914204D1A2
:1015B000616A00F47010884201D00120EAE700203F
:1015C000E8E700000010024000004242800442426E
:1015D000480000200070004070B5040009D0606A27
:1015E000002540B125616561A56294F8510040B1C4
:1015F0000CE0012070BD6068B0F5827FF4D0E56139
:10160000F2E784F85050204600F040F8022084F8B9
:1016100051002068016821F040010160A088218903
:1016200000F4827001F404410843A18901F40061CF
:101630000843217C01F002010843217D01F00101F2
:101640000843218B01F400710843217F01F0380128
:10165000084394F8201001F080010843218D01F423
:101660000051084321680860A069042101EA104084
:10167000216848602068C16921F40061C161656525
:10168000012084F85100002070BD000030B585B005
:101690000024009401940294039400681449884241
:1016A00023D11448816941F480518161816901F439
:1016B00080510491816941F00401816180690E4D7E
:1016C00000F004000490A02000900220019003206C
:1016D000039069462846FFF745F94020CDE900040C
:1016E000694628460294FFF73DF905B030BD000079
:1016F0000030014000100240000801402DE9F84F81
:10170000044690F8500000270A9E1D4692468B46DC
:101710004FF0010901280ED0012084F85000FFF796
:1017200017FA804694F85100616801280CD0B1F591
:10173000827F07D102E00220BDE8F88FA16809B9D5
:10174000042801D00227C6E0BBF1000F27D0BAF170
:10175000000F24D01DB394F85100042802D00520B6
:1017600084F8510000206065C4F838A0E587A5879B
:10177000C4F830B0E586A5862064606420680168FE
:10178000490603D4016841F040010160E068B0F50A
:10179000006F606805D0E0B3012D48D083E00127D9
:1017A00099E008B1012D3BD1206B21680088C86009
:1017B000206B00F102002063E08EA0F10100E086C2
:1017C0002EE02068816889070FD5E18E69B1B9F1F3
:1017D000010F0AD1216B0988C160206B801C206336
:1017E000E08E401EE0864FF0000920688168C9073E
:1017F0000CD0E18F51B1C068A16B0880A06B801C38
:10180000A063E08F401EE0874FF00109FFF7A0F9C9
:1018100000E00CE0A0EB0800B04201D3701C52D1F4
:10182000E08E0028CDD1E08F0028CAD141E0206BA6
:10183000216800780873206B00F101002063E08EBE
:10184000A0F10100E0862EE02068816889070FD5AD
:10185000E18E69B1B9F1010F0AD1216B09780173E9
:10186000206B401C2063E08E401EE0864FF0000994
:1018700020688168C9070CD0E18F51B1C068A16BA5
:101880000870A06B401CA063E08F401EE0874FF003
:101890000109FFF75DF9A0EB0800B04202D3701C0C
:1018A00001D010E07EB1E08E0028CDD1E08F00287D
:1018B000CAD142463146204601F060F828B10127DE
:1018C0002020606507E0032705E0A06818B92068BC
:1018D000C168806800900120503460700020207042
:1018E000384629E710B5401EB0F1807F01D30120B2
:1018F00010BD4FF0E02460610F21601701F08AFCF9
:101900000020A06107202061002010BD70477047B3
:10191000F8B5026804461068D168536910F00F0FDB
:101920004FF0000554D003F0010601F490773743DF
:101930005FD0C20705D0CA0503D5226C42F0010270
:101940002264420705D5DA0703D0226C42F0020276
:101950002264820705D5DA0703D0226C42F0040224
:101960002264020707D501F02002324303D0226C23
:1019700042F008022264226C002A35D0800604D589
:10198000880602D5204601F071FA20684069216C72
:10199000C0F3801001F008010143204625D001F07A
:1019A0004DFA2068416949061BD5416921F0400183
:1019B0004161A06BA8B159494163A06BFEF7C2FE1B
:1019C000002811D0A06B416B01B0BDE8F040084782
:1019D00083060ED58B060CD52046BDE8F84001F0F5
:1019E00045BA2046FFF793FFF8BDFFF790FF256447
:1019F000F8BD266B2023012E52D1C60650D5CE0647
:101A00004ED5106850680090506940062AD5A16BE9
:101A1000086840680004000CEAD0A68D8642E7D929
:101A2000E0858869202818D0D06820F48070D060C4
:101A30002068416921F0010141612068416921F07C
:101A40004001416184F83E3025632068C16821F07F
:101A50001001C160A06BFEF751FEA08DE18D401A10
:101A600081B219E0A08DE18D401A81B2E08D00288D
:101A7000BED00029BCD0D06820F49070D06020681F
:101A8000426922F00102426184F83E3025632068F9
:101A9000C26822F01002C2602046FFF737FFF8BD8F
:101AA00005062CD50D062AD594F83D002128F6D13F
:101AB000A068B0F5805F01D12069B0B1206A411CF7
:101AC0002162216800784860E08C401E0004000C10
:101AD000E084E4D12068C16821F08001C160206801
:101AE000C16841F04001C160F8BD206A0088C0F3C0
:101AF00008005060206A00F102002062E4E740061E
:101B0000F2D54806F0D5D168204621F04001D160D9
:101B100084F83D3000F08FF9F8BD00002D2E00084C
:101B200070B5040004D094F83D00002510B106E023
:101B3000012070BD84F83C50204600F023F824209A
:101B400084F83D002068C16821F40051C16020463E
:101B500001F0E8F92068016921F4904101612068F1
:101B6000416921F02A0141612068C16841F40051B6
:101B7000C1602564202084F83D0084F83E000020E8
:101B800070BD000070B586B00024009401940294EA
:101B9000039403682B482A4E022103220515B34201
:101BA00021D1836943F480438361836903F48043D3
:101BB0000493836943F0040383618069224E00F03B
:101BC000040004900802CDE9000103926946304602
:101BD000FEF7C8FECDE90054694630460294FEF790
:101BE000C1FE06B070BD194EB342FAD1C36943F4C9
:101BF0008023C361C36903F480230493836943F0A2
:101C0000080383618069CDE9005100F00800CDE947
:101C100003200F4D69462846FEF7A4FEE814CDE9DF
:101C20000004694628460294FEF79CFE002201212A
:101C30002720FFF71BFA2720FFF70AFAD1E7000059
:101C400000380140001002400008014000480040F8
:101C5000000C01402DE9F84F044690F83E009A46EA
:101C600016460D46202853D1FDB1F6B194F83C003C
:101C700001284DD0012084F83C0000272764222051
:101C800084F83E002763FEF763FFA6858146E6855C
:101C9000A0684FF48058404501D1206940B12E46DC
:101CA0005FF0000584F83C7027E00120BDE8F88F64
:101CB0000026F7E74B46002220212046CDF800A061
:101CC00001F091F908B10320F0E726B1A068404582
:101CD0001BD038B108E020684068C0F3080025F840
:101CE000020B07E0206980B12068406800F07F00A7
:101CF00006F8010BE08D401EE085E08D0028D9D16B
:101D0000202084F83E000020D0E720684068EFE7FC
:101D10000220CBE790F83E30202B0ED159B152B1C2
:101D200090F83C30012B08D0012380F83C30002390
:101D3000036301F03DB901207047022070470000A5
:101D400010B50D4900680968884214D10B4820225B
:101D500041780D290DD00A290BD04178084800F0B0
:101D6000C2FD06490122BDE81040491C0248FFF7A8
:101D7000D1BF4270F1E710BDC0010020100000206B
:101D8000600000202DE9F843044690F83D001F460E
:101D900016460D4620284CD1C5B1BEB194F83C0082
:101DA000012846D0012084F83C004FF00008C4F818
:101DB0004080212084F83D00FEF7CAFEA6848146BB
:101DC000E684A068B0F5805F03D004E00120BDE8A0
:101DD000F883206928B12E465FF0000584F83C8026
:101DE0000EE00026FAE78021204601F0FCF8A0B9B9
:101DF000AEB116F8010B21684860E08C401EE0840B
:101E0000E08C4B464FF0000200970028EBD14FF0DA
:101E10004001204601F0E7F830B10320D7E735F85C
:101E2000020BC0F30800E6E7202084F83D00002004
:101E3000CDE70220CBE77047FEE7000001490860CC
:101E4000704700000000002001684A69D243520533
:101E50000FD46FF480624A61002140F8301F2022C5
:101E600042738173026942F004020261017301202E
:101E70007047002070470000F8B50446C06A1E464F
:101E80000D461746082807D0012805D010F5803FD9
:101E900002D0206B122804D12068016841F48071BF
:101EA0000160134600224FF001112046009600F019
:101EB000ABF840B120680068C00502D54FF400704F
:101EC00020640320F8BD2069B0F5804F0ED00620B5
:101ED000216800EAD51040F0F000086133463A4628
:101EE0000B49204600F0C4F878B902E005F0FE0086
:101EF00000E0E8B221680861054933463A46891F87
:101F0000204600F0B5F80028DCD00120F8BD000024
:101F1000080001002DE9F843044600680D46DDE99C
:101F2000089701689846164641F4807101604B4657
:101F300000224FF001112046009700F065F848B1EB
:101F400020680068C00502D54FF4007020640320AB
:101F5000BDE8F883216805F0FE0008613B464A466B
:101F60001549204600F084F888B9206841698069E5
:101F700000903A464946204600F0C5F848B1206C2A
:101F8000042804D12068016841F400710160012037
:101F9000DEE7F5B2B8F1010F09D02168300A086117
:101FA0003A464946204600F0AEF80028E7D12068BE
:101FB00005610020CCE700000200010070B5164664
:101FC0000D4604460DE02046FFF73EFF08B1012014
:101FD00070BD681C05D0FEF7BBFD801BA84207D86A
:101FE00035B120684069C0434007ECD4002070BD83
:101FF000002044F8300F20216173A073216941F063
:10200000200121612073E2E72DE9F0471E4690464A
:102010000D460446C1F30747DDF8209008E0701C28
:1020200006D0FEF795FDA0EB0900B0420FD876B1BF
:102030002068012F18D0806925EA00000004000CF8
:1020400014D000214145EAD00020BDE8F0870020EF
:1020500044F8300F20216173A073216941F0200101
:10206000216120730120F0E74069E5E70121E9E7FC
:102070002DE9F0479A4691460E46044600254FF05A
:102080002008C1F3074725E020684069C0434005A8
:1020900014D42068016841F40071016021686FF474
:1020A00080604861256384F83D8084F83E50206C50
:1020B00040F00400206484F83C501FE019F1010056
:1020C00008D0FEF745FDA0EB0A0149450CD8B9F14F
:1020D000000F09D02068012F13D0806926EA000084
:1020E0000004000C0BD0CFE744F8305F84F80D807B
:1020F000A573206940F02000206125730120BDE810
:10210000F0874069EAE770B516460D4604460DE0D3
:102110002046FFF799FE08B1012070BD681C05D06C
:10212000FEF716FD801BA84207D835B1206840692C
:10213000C0430006ECD4002070BD002044F8300FEE
:1021400020216173A073216941F020012161207376
:10215000E2E700001CB500F0F00141F00C028DF840
:10216000042041F0080100018DF8051040F00C0139
:102170008DF8061040F008008DF807004FF47A70D3
:102180000090042301AA4E210148FEF7A5FD1CBDC5
:10219000D000002010B50120FFF7DCFFBDE81040A3
:1021A0000320FEF71BBB10B53220FEF717FB3020D3
:1021B000FFF7D0FF0520FEF711FB3020FFF7CAFF25
:1021C0000120FEF70BFB3020FFF7C4FF0A20FEF7CB
:1021D00005FB2020FFF7BEFF0A20FEF7FFFA2820AC
:1021E000FFF7B8FF0120FEF7F9FA2820FFF7B2FF4A
:1021F0000A20FEF7F3FA0820FFF7ACFF0A20FEF7EB
:10220000EDFA0120FFF7A6FF0A20FEF7E7FA062005
:10221000FFF7A0FF0A20FEF7E1FA0C20FFF79AFF74
:10222000BDE810400A20FEF7D9BA00001CB500F046
:10223000F00141F00D028DF8042041F00901000188
:102240008DF8051040F00D018DF8061040F00900E2
:102250008DF807004FF47A700090042301AA4E21F4
:102260000148FEF739FD1CBDD000002010B5044622
:1022700002E0641CFFF7DAFF20780028F9D110BDD6
:1022800001F00F0150B101280BD002280CD0032817
:102290000DD141F0D40000BFFFF75CBF41F08000DA
:1022A000FAE741F0C000F7E741F09400F4E7704727
:1022B000234810B58068E0B1012829D002283DD11B
:1022C000FFF768FF01210846FFF7DAFF1DA0FFF7BF
:1022D000CDFF01210220FFF7D3FF1EA0FFF7C6FFAD
:1022E00001210320FFF7CCFF1CA0BDE81040FFF741
:1022F000BDBFFFF74FFF01210846FFF7C1FF19A03F
:10230000FFF7B4FF01210220FFF7BAFF11A00DE093
:10231000FFF740FF01210846FFF7B2FF09A0FFF7D2
:10232000A5FF01210220FFF7ABFF12A0FFF79EFFE0
:1023300001210320FFF7A4FF10A0D6E710BD000085
:1023400010000020204469656D44616E6856616E1E
:102350005461790020524649440000003E42414306
:102360004B0000003E4469656D44616E6856616EC5
:10237000546179003E5246494400000020424143E6
:102380004B000000364810B5C06828B3012832D091
:1023900002284DD0032861D1FFF7FCFE0121002067
:1023A000FFF76EFF2FA0FFF761FF01210846FFF73F
:1023B00067FF2FA0FFF75AFF01210220FFF760FF00
:1023C00030A0FFF753FF01210320FFF759FF31A091
:1023D000BDE81040FFF74ABFFFF7DCFE01210020F7
:1023E000FFF74EFF2DA0FFF741FF01210846FFF741
:1023F00047FF1FA00DE0FFF7CDFE01210020FFF7F2
:102400003FFF18A0FFF732FF01210846FFF738FF12
:1024100025A0FFF72BFF01210220FFF731FF19A0B4
:10242000FFF724FF01210320FFF72AFF23A0CFE7B6
:10243000FFF7B0FE01210020FFF722FF09A0FFF700
:1024400015FF01210846FFF71BFF09A0FFF70EFF4C
:1024500001210220FFF714FF1AA0E1E710BD0000E0
:1024600010000020204144442056414E5441590060
:102470002044454C45544520312056414E54415945
:10248000000000002044454C4554452046554C4C26
:10249000000000003E4241434B0000003E414444E6
:1024A0002056414E544159003E44454C4554452028
:1024B000312056414E544159000000002042414312
:1024C0004B0000003E44454C4554452046554C4C7D
:1024D00000000000124810B580684FF47A7488B18B
:1024E00001281BD1FFF756FE08210020FFF7C8FE88
:1024F0000CA0FFF7BBFE00F089F92046BDE81040B4
:10250000FEF76CB9FFF746FE01210020FFF7B8FE89
:1025100006A0FFF7ABFE00F0A1FDEEE710BD000046
:102520001000002052464944000000004469656DD7
:1025300044616E6856616E546179000070B51E4C3E
:102540001E4DE068B8B1012828D0022833D1FFF72A
:1025500021FE01210020FFF793FE19A0FFF786FE60
:1025600000F006FE2846FEF7A5F800212846BDE843
:102570007040FEF7B4B8FFF70DFE01210020FFF711
:102580007FFE12A0FFF772FE01F066F96069401C41
:1025900060612846FEF78EF86169E7E7FFF7FAFD0C
:1025A00001210020FFF76CFE0BA0FFF75FFEBDE8E6
:1025B000704000F0F1BD70BD1000002000FC00086C
:1025C00044454C4554452046554C4C00414444201C
:1025D00056414E205441590044454C455445203104
:1025E0002056414E544159001A4810B50078D0B1D8
:1025F00001282ED1FFF7CEFD06210020FFF740FE77
:1026000015A0FFF733FE01210220FFF739FE14A0C9
:10261000FFF72CFE01210320FFF732FE13A0BDE8D7
:102620001040FFF723BEFFF7B5FD06210020FFF79E
:1026300027FE09A0FFF71AFE01210220FFF720FE66
:102640000DA0FFF713FE01210320FFF719FE0DA0D7
:10265000E5E710BD10000020444F20414E2032001D
:10266000204469656D44616E680000003E53455426
:1026700054494E47000000003E4469656D44616E58
:10268000680000002053455454494E4700000000A4
:1026900070B586B000241B48009401940294039402
:1026A000816941F020018161816901F0200104917B
:1026B000816941F004018161816901F004010491A3
:1026C000816941F00801816180690F4E00F00800C6
:1026D0000490002210213046FEF735FA062001252D
:1026E0008DE8310069463046FEF73CF91020CDE90F
:1026F00000050320CDE9024069463046FEF732F975
:1027000006B070BD00100240000801400D4810B531
:102710000B4901600C49416000214FF48042816007
:10272000C0E9031241618161C1610162FEF716FADD
:10273000002803D0BDE81040FDF730BF10BD0000F9
:1027400000540040D0000020A0860100104810B5C1
:102750000E4901604FF48271416000218160C160C7
:102760004FF400720161C0E905121022C0E907218F
:10277000416281620A21C162FEF72EFF002803D068
:10278000BDE81040FDF70ABF10BD00000030014059
:10279000240100200C4810B50A4901604FF4614142
:1027A0004160002181600C22C160C0E90412816196
:1027B000C161FFF7B5F9002803D0BDE81040FDF76F
:1027C000EDBE10BD003801407C0100200C4810B562
:1027D0000A4901604FF4E1314160002181600C221F
:1027E000C160C0E904128161C161FFF799F9002855
:1027F00003D0BDE81040FDF7D1BE10BD0048004039
:10280000C0010020FEE7FEE7704700001CB51A4833
:1028100000F0B1F90028FAD11748C2788178CDE9E3
:1028200000124378027815A11748FDF7E5FC6423F0
:10283000082215491548FFF7A5FA4FF4FA60FDF78D
:10284000CDFF11484FF00101463800782028084696
:102850000DD0FFF715FD0C48B0F14600FFF706FD5F
:10286000BDE81C4008481421563800F019B8FFF79D
:1028700007FD07A0F2E70000300000202564256472
:102880002564256400000000B6000020C00100207F
:102890006B686F6E6720636F2074686500000000CE
:1028A000426803689A4202D14FF0FF3070470268D5
:1028B0004368D21A8A4203D201684268891AC9B2AF
:1028C0000268511A01600020704710B109B1022A54
:1028D00002D24FF0FF307047C160002101604160BB
:1028E00082600846704710B502688368521C9342A4
:1028F00000D800224368934202D14FF0FF3010BD50
:102900000468C36819550260002010BD00B5034675
:1029100085B00078FDF738FE8DF80C005878FDF78B
:1029200033FE8DF80D009878FDF72EFE8DF80E0021
:10293000D878FDF729FE8DF80F001879FDF724FEF1
:102940008DF810005879FDF71FFE8DF81100987969
:10295000FDF71AFE8DF812004FF47A72072103A8D2
:102960008DE80700044801230022D0210068FEF70B
:102970004DFA05B000BD00000000002038B50B4640
:10298000009204460022802100F008F8002804D0BC
:10299000606D40F020006065032038BD2DE9F843EC
:1029A0001E46914688460446089DFEF7D1F8401B16
:1029B000351AFEF7CDF8074625480068C0F3CB303E
:1029C000684337E0701C36D0FEF7C2F8C01BA8423F
:1029D00003D215B1009858B32BE02068416821F06C
:1029E000E00141606068B0F5827F0BD1A068B0F56E
:1029F000004F02D0B0F5806F04D12068016821F04B
:102A000040010160A06AB0F5005F09D1206801684B
:102A100021F4005101602068016841F40051016017
:102A2000012050346070002020700320BDE8F8833E
:102A30000025401E00902068816838EA010004D01B
:102A400000214945BED10020F0E70121F9E700004F
:102A5000480000207047FEF7A3BA30B58FB0282198
:102A60006846FDF7B7FC14210AA8FDF7B3FC012165
:102A70000804CDE900100024029402250491CDE958
:102A800007504FF4E01009906846FEF711FC08B1BA
:102A900072B6FEE70F20CDE90A054FF48060CDE95C
:102AA0000C4002210AA80E94FEF712FB002801D068
:102AB00072B6FEE70FB030BD704710B5142000F0BD
:102AC000AFF8800705D10321BDE81040142000F0C5
:102AD000DEB810BD7CB50446002529460D2000F067
:102AE00071F9932020702020607001A82346009087
:102AF000022219460C2000F0D6F8010009D1225C10
:102B0000401C5540C0B20428F9D3205CA84200D034
:102B1000022108467CBD2DE9F0410E4607461546C8
:102B20000421052000F037F880210A2000F0AFF8DA
:102B3000002405E0395D092000F044F9641CE4B28A
:102B4000B442F7D30321012000F03CF9FF24052013
:102B500000F066F8A4F1010414F0FF0401D040076E
:102B6000F5D5222000F05CF82870212000F058F8FC
:102B70006870BDE8F08170B505460146262000F07A
:102B80006BF8040003D12846FFF7A4FF044600F0C9
:102B90000EF8204670BD70B50C46054600F040F8B2
:102BA00020EA04012846BDE8704000F00BB90EB5DC
:102BB00050208DF8040000208DF805000DF106026C
:102BC000022101A8FFF7A7FF02A801AB0090042291
:102BD00019460C2000F067F80EBD10B500F053F850
:102BE0008D212A2000F0EEF83E212B2000F0EAF89B
:102BF0001E212D2000F0E6F800212C2000F0E2F844
:102C00007021262000F0DEF84021152000F0DAF8CF
:102C10003D21112000F0D6F8BDE81040FFF74DBF70
:102C200070B50C4D0446002210212846FDF78BFF9D
:102C30007E2000EA440040F0800000F0DDF8002033
:102C400000F0DAF80446012210212846FDF77BFF48
:102C5000204670BD000801407CB50C4605460721A2
:102C60000D2000F0AFF8257001A823460090012246
:102C700019460C2000F017F818B9BDF804101029F7
:102C800000D002207CBD0F21012000F09BB870B560
:102C90000C460546FFF7C4FF40EA04012846BDE89C
:102CA000704000F08FB82DE9FF5F00250226DDF8A7
:102CB00038A017468B468146A8460C2805D0B9F1A6
:102CC0000E0F05D11225102001E077253020804617
:102CD00045F08001022000F075F880210420FFF704
:102CE0005AFF80210A20FFF7D2FF0021012000F0C7
:102CF00069F8002406E01BF80410092000F062F8CF
:102D0000641CA4B2BC42F6D34946012000F05AF834
:102D1000B9F10C0F03D180210D20FFF7B8FF4FF45C
:102D2000FA670420FFF77CFF7F1E3F0404463F0C38
:102D300013D0E00702D114EA080FF2D080210D2051
:102D4000FFF729FF0620FFF76BFF10F01B0F09D0DC
:102D5000022604B03046BDE8F09F80210D20FFF729
:102D60001AFFF6E700262C40E00700D00126B9F153
:102D70000C0FEED10A20FFF753FF04460C20FFF79B
:102D80004FFF10F007004FEAC40104D0083908448F
:102D9000AAF8000001E0AAF8001024B1102C04D910
:102DA0001024002503E00124FBE7002506E00920AC
:102DB000FFF736FF039948556D1CADB2A542F6D317
:102DC000C7E7000070B50B4D0E46044600221021E7
:102DD0002846FDF7B8FE7E2000EA440000F00CF81B
:102DE000304600F009F82846BDE870400122102165
:102DF000FDF7A9BE000801403EB50B4C8DF804005C
:102E0000206881688907FCD50A200090012302AA66
:102E100001A90548FEF772FC206881680906FCD408
:102E20009DF808003EBD00002401002010B5406A56
:102E30000021C185C184FEF76AFD10BD0168CA6822
:102E400022F49072CA6001684A6922F001024A6164
:102E5000016B012904D10168CA6822F01002CA601E
:102E6000202180F83E1000210163704708B590F8DA
:102E70003E10222901D0022008BD82684FF4805301
:102E80009A4201D1016921B1816A9A421BD04AB1AB
:102E90000AE00268816A5268C2F308020A80816A05
:102EA000891C08E0026972B10268526802F07F0270
:102EB0000A70816A491C8162C18D491E0904090C8E
:102EC000C18503D019E002685268F1E70168CA6859
:102ED00022F02002CA600168CA6822F48072CA60C7
:102EE00001684A6922F001024A61202180F83E10FF
:102EF000016B012903D0FEF723FF002008BD00214C
:102F000001630168CA6822F01002CA6001680A6899
:102F1000D20602D50A6849680091818DFEF7F6FC59
:102F2000EBE7000010B5044600680169E26821F48F
:102F30004051114301612169A06808436169084358
:102F40002168CA6841F20C639A430243CA60206850
:102F50004169A26921F4407111434161134920681C
:102F6000884202D1FEF75AF901E0FEF747F900EB7B
:102F7000C00101EB0010616864228900B0FBF1F12F
:102F8000B1FBF2F06FF01803434301EB83033221EE
:102F900001EB0311B1FBF2F101F0F00202EB0010C2
:102FA00001F00F0108442168886010BD003801401D
:102FB00081628285C28500210164222280F83E2040
:102FC00080F83C100168CA6842F48072CA600168E7
:102FD0004A6942F001024A610068C16841F020017B
:102FE000C160002070472DE9F041984617460E4613
:102FF0000446069D1DE0681C1BD02DB1FDF7A8FD01
:10300000A0EB0800A84214D92068C16821F4D0714F
:10301000C1602068416921F001014161202084F8EC
:103020003D0084F83E00002084F83C000320BDE809
:10303000F0812068006836EA000004D00020B84221
:10304000D9D00020F3E70120F9E700000148FEF79E
:103050005FBC0000C0010020FEE7000070B500F07A
:1030600037FC012860D100F049FA304C411CA070B7
:1030700004D04FF4FA6501280AD013E00121084674
:10308000FFF7FEF82AA0FFF7F1F84FF47A7047E057
:1030900001210846FFF7F4F82AA0FFF7E7F82846D1
:1030A000FDF79CFBA078022809D101210846FFF713
:1030B000E7F827A0FFF7DAF82846FDF78FFBA0789E
:1030C00003280CD101210846FFF7DAF823A0FFF707
:1030D000CDF82846FDF782FBA078032824D094F988
:1030E0000200022820D001281ED001210846FFF747
:1030F000C7F81DA0FFF7BAF894F902000A2690FB62
:10310000F6F03030C0B2FFF791F894F9020090FB6E
:10311000F6F106FB11003030C0B2FFF787F8284601
:10312000BDE87040FDF75ABB70BD000010000020E4
:103130006C6F6920202020202020202020202020AB
:1031400020202000666F756E642D44756E67200028
:10315000666F756E642D566965742000666F756EB6
:10316000642D48756E67200069643A2000000000F5
:1031700010B500F0ADFB01280AD100F0ADF8012137
:103180000846FFF77DF8BDE810400248FFF76EB82B
:1031900010BD0000383A000870B500F099FB012816
:1031A0002DD100F0ABF9164CA07080B200F06AF897
:1031B00001210846FFF764F812A0FFF757F894F9C9
:1031C00002000A2590FBF5F03030C0B2FFF72EF870
:1031D00094F9020090FBF5F105FB11003030C0B20C
:1031E000FFF724F84FF47A70FDF7F8FA012108464A
:1031F000FFF746F8BDE8704004A0FFF737B870BD90
:103200001000002069643A2000000000446120584A
:103210006F6100000907090E002801DB034A02E084
:10322000034A00F00F0081547047000000E400E002
:1032300014ED00E030380A2801D201207047002048
:103240007047000008B50CA06B46006800900B4862
:1032500003220121806800F06BFB094800F08AF925
:103260000749012805D00878072802D04FF0FF3021
:1032700008BD91F9010008BD050000000400002010
:103280004C0000201CB510A26B46D2E90012CDE91B
:103290000012010A8DF801108DF802000C48072277
:1032A0000121806800F044FB0A4800F063F90949F5
:1032B000012805D00878072802D04FF0FF301CBD48
:1032C00091F901001CBD00000C000000010000008D
:1032D000040000204C00002008B50CA06B460068DC
:1032E00000900B4803220121806800F021FB09486F
:1032F00000F040F90749012805D00878072802D0D6
:103300004FF0FF3008BD91F9010008BD0D0000002D
:10331000040000204C00002010B5044601210020CC
:10332000FEF7AEFF32A0FEF7A1FF00BF00F002F9EA
:103330000028FBD1012000F067F938B1FEF72AFF21
:1033400001210020FEF79CFF2EA03AE00121002081
:10335000FEF796FF30A0FEF789FF4FF47A70FDF775
:103360003DFA00BF00F0E6F80228FBD10121002061
:10337000FEF786FF2CA0FEF779FF00BF00F0DAF819
:103380000028FBD1022000F03FF928B101210020E4
:10339000FEF776FF29A014E0FFF754FF28B10121C2
:1033A0000020FEF76DFF2AA00BE0204600F02EFA69
:1033B00000284FF001014FF0000006D0FEF760FF3B
:1033C00028A0FEF753FF002010BDFEF759FF2AA0EA
:1033D000FEF74CFF01210846FEF752FF2BA0FEF737
:1033E00045FF3034E0B2FEF721FF012010BD0000A0
:1033F0004D6F692064617420746179202020202041
:10340000000000006C6F692074616F206B7920747C
:10341000752031200000000064616E6720636170D8
:1034200074757265202020006461206C75752063BE
:103430006861726275663120000000006C6F69205F
:1034400074616F206B792074752032202000000099
:103450006C6F69206B68692074616F206D617520E5
:10346000200000007468617420626169206B6869E3
:103470002074616F000000007375636365737320CF
:1034800020202020202020202000000069643A20F5
:10349000000000007CB515A1164CD1E90001CDE972
:1034A00000014FF6FF75258065806B4608220121DB
:1034B000A06800F03DFA104800F05CF80E490128C1
:1034C00005D00878072802D04FF0FF307CBD8878FF
:1034D000CA7805EA00200243228008794A7905EA81
:1034E00000200243628091F901007CBD1B010000B5
:1034F00000A30000040000204C00002010B54FF095
:10350000FF3400BF00F016F80028FBD1012000F0C6
:103510007BF830B94FF47A70FDF760F9FFF7BAFF26
:1035200008B1204610BD0248007840B210BD00002E
:103530000400002008B50CA06B46006800900B4802
:1035400003220121806800F0F3F9094800F012F825
:103550000749012805D00878072802D04FF0FF302E
:1035600008BD91F9010008BD010000000400002021
:103570004C0000202DE9F04385B0224F0646002480
:103580004FF4FA694FF6FF784FEA0D0597F83E00C1
:103590002028FBD129194B4601221A48FEF75AFB75
:1035A0001CB99DF80000EF28F0D1641CE4B2092C8E
:1035B000ECD39DF80000EF2803D19DF8010001280D
:1035C00003D0FE2005B0BDE8F0839DF807009DF80C
:1035D000061008EA00229DF808001043801E80B201
:1035E00000F10A029442D1D93170002105E06A1835
:1035F0007318527A491C5A70C9B28142F7D3C0B2CB
:10360000E0E700007C01002008B50DA16B460968C9
:1036100000918DF801000B4804220121806800F020
:1036200087F90948FFF7A6FF0749012805D0087860
:10363000072802D04FF0FF3008BD91F9010008BD06
:1036400002000000040000204C000020FDF7B0FC48
:10365000FFF703FAFFF71CF8FFF778F8FFF756F8C3
:10366000FFF798F8FFF7B2F8FFF7B7FAFEF79BFD00
:103670006148FEF7E3FB6148FFF748F9604914220F
:10368000A1F11000FFF721F95C49012224395D48BE
:10369000FEF740FBFFF7A1FA584C5B4E00250127CF
:1036A0004FF00208253C02213046FDF747FAA061A1
:1036B00004213046FDF742FAE061A06901282AD0D2
:1036C00048BB6068012806D1207808B1257000E069
:1036D0002770FEF789FF6068022819D1207858B951
:1036E000A068022801DBA56001E0401CA060FEF795
:1036F000DFFD606802280BD12078012808D1E0683E
:10370000032801DBE56001E0401CE060FEF73AFEC3
:10371000C820FDF763F8E0690028C4D16068401C48
:103720006060012808D0022809D0032815D0042899
:103730002ED0032815D056E0FEF756FF53E0207830
:1037400010B1012803D04EE0FEF7B2FD01E0FEF714
:1037500019FE2069401C206145E0207830B1012825
:103760000DD0207878B3012837D03CE0A06802283B
:103770002ADA2069012836D1FEF7ACFE33E0E06892
:1037800003282ADA206901282DD1FEF7D7FE2AE086
:10379000207810B101280BD025E0A068022822DA99
:1037A000206901281FD1C4F80480FEF781FD1AE0CA
:1037B000E068032817DA2069012814D1C4F80480CE
:1037C000FEF7E0FD0FE0FFE7A06802280BD12069BB
:1037D000012808D1C4E901750BE0E068032802D193
:1037E0002069012803D0C820FCF7F8FF5BE7676079
:1037F000E5602561A0E70000D00000203500002032
:1038000070000020C00100200008014008B50FA191
:103810006B4609680091010A8DF802108DF80300CB
:103820000B4806220121806800F082F80948FFF762
:10383000A1FE0849012805D00878072802D04FF0DA
:10384000FF3008BD91F9010008BD0000060200002C
:10385000040000204C00002070B51948FCF73DFF23
:10386000184C606100F034F8012828D1207DFFF762
:1038700053FD012805D0BDE8704040F2DC50FCF754
:10388000ADBF4FF47A70FCF7A9FF01210846FEF79F
:10389000F7FC0DA0FEF7EAFC60690A2590FBF5F045
:1038A0003030C0B2FEF7C2FC606990FBF5F105FB59
:1038B0001100BDE870403030C0B2FEF7B7BC70BD3B
:1038C00000FC00081000002069643A20000000009D
:1038D0001CB513A1144CD1E90001CDE900016068C9
:1038E0008DF80400010E8DF80110010C8DF8021006
:1038F000010A8DF803106B4607220121A06800F031
:1039000017F80A48FFF736FE012805D10748017865
:10391000072901D1407808B100201CBD01201CBD41
:103920001300000000000000040000204C000020F4
:103930002DE9FF418EB0EF218DF80C1001218DF89B
:103940001010010E8DF81410010C8DF81810010ADA
:103950008DF82000100AD5B24FF4FA681F461446BD
:103960008DF81C108DF824008DF80450464643460F
:10397000012203A92F48FEF705FA3346012204A9C4
:103980002C48FEF7FFF93346012205A92948FEF726
:10399000F9F93346012206A92648FEF7F3F9334622
:1039A000012207A92348FEF7EDF93346012208A9B1
:1039B0002048FEF7E7F9334601220FA91D48FEF71C
:1039C000E1F93346012209A91A48FEF7DBF933462B
:1039D000012201A91748FEF7D5F905EB14209DF83F
:1039E0003C1000254618A41E0DE0785D8DF82800D7
:1039F000434601220AA90F48FEF7C4F9785D6D1C01
:103A0000304486B2EDB2A542EFDB300A8DF82C00CF
:103A10008DF830604446434601220BA90548FEF765
:103A2000B1F9234601220CA90248FEF7ABF912B006
:103A3000BDE8F0817C010020446120586F610000E6
:103A4000000000000000000102030406070809004E
:103A50000000000102030404000008000000000050
:103A60000000020001000010883A00080000002059
:103A70004C00000028010008D43A00084C00002047
:103A80003C080000440100080000000000000000A5
:103A900000000000FFFFFFFFFF000000010000002A
:103AA0000000000000000000000000000000000016
:103AB00000000000000000000000000000003508C9
:103AC000060C0A15010000001000000000000000B4
:043AD0000024F400DA
:04000005080000ED02
:00000001FF
